:100000000C9449030C9471030C9471030C947103C8
:100010000C9471030C9471030C9471030C94710390
:100020000C9471030C9471030C9464110C94D3110F
:100030000C9471030C9471030C9471030C94710370
:100040000C9471030C9471030C9471030C94710360
:100050000C9471030C9471030C9471030C94FF13B2
:100060000C9471030C9471030C9471030C94710340
:100070000C9471030C9471030C9471030C94710330
:100080000C9471030C9471030C9471030C94710320
:100090000C9471030C9471030C9471030C94710310
:1000A0000C9471030C9471030C94710305A84CCD4E
:1000B000B2D44EB93836A9020C50B9918688083CA2
:1000C000A6AAAA2ABE000000803F07060504010078
:1000D000080A0B0C0D090000000200090F000003C4
:1000E0000401000C000000000000000000000000FF
:1000F0000000000000080B000202020000090400DA
:100100000001020200000524001001052401010184
:10011000042402060524060001070581031000409F
:1001200009040100020A0000000705020240000065
:10013000070583024000000403090412010002EFD6
:100140000201404123368000010102030141726433
:1001500075696E6F204C4C430041726475696E6F17
:10016000204C656F6E6172646F0000000000250016
:1001700028002B002E003100000000002400270082
:100180002A002D00300004040404040304050202C4
:100190000202040302020202060606060606040420
:1001A00002020204040408020110408040102040B2
:1001B000804080080204018040201002011080105D
:1001C00020404020050F0992A1028502099F09A045
:1001D00009A409A509A615002501350045017501E9
:1001E00095058102950381030994150025013500C9
:1001F0004501750195018102092215012528350166
:100200004528750795018102C00921A102850109D0
:100210002215012528350145287508950191020907
:1002200025A10209260927093009310932093309B4
:1002300034094009410942094309280928150125C3
:100240000C3501450C750895019100C00950095401
:100250000951150026FF7F350046FF7F66031055C4
:10026000FD751095039102550066000009521500B6
:1002700026FF0035004610277508950191020953A5
:1002800015012508350145087508950191020955A4
:10029000A1020501093009311500250175019502FA
:1002A0009102C0050F095695019102950591030928
:1002B00057A1020B01000A000B02000A006614009D
:1002C00055FE150026FF00350047A08C0000660093
:1002D000007508950291025500660000C0050F09DF
:1002E00058A1020B01000A000B02000A0026FD7F44
:1002F000751095029102C0C0095AA1028502092217
:100300001501252835014528750895019102095BDD
:10031000095D1600002610273600004610277510CC
:1003200095029102095C095E66031055FD27FF7F67
:10033000000047FF7F00007520950291024500668E
:1003400000005500C0095FA102850309221501259F
:1003500028350145287508950191020923150025C6
:1003600003350045037504950191020958A1020B5C
:1003700001000A000B02000A00750295029102C0FA
:1003800016F0D826102736F0D846102709607510C9
:100390009501910236F0D84610270961096295024D
:1003A0009102160000261027360000461027096328
:1003B000096475109502910209654610279501910F
:1003C00002C0096EA1028504092215012528350104
:1003D000452875089501910209701600002610271E
:1003E000360000461027751095019102096F16F02E
:1003F000D826102736F0D84610279501751091029F
:10040000097166140055FE1500279F8C0000350009
:10041000479F8C0000751095019102097215002705
:10042000FF7F0000350047FF7F000066031055FD89
:100430007520950191026600005500C00973A10264
:1004400085050922150125283501452875089501DE
:100450009102097016F0D826102736F0D8461027DA
:10046000751095019102C00974A102850609221533
:10047000012528350145287508950191020975095E
:100480007616F0D826102736F0D846102775109526
:10049000029102C00968A1028507092215012528D9
:1004A00035014528750895019102096C1500261043
:1004B00027350046102775109501910209691581AD
:1004C000257F350046FF007508950C920201C00992
:1004D00066A10285080501093009311581257F359E
:1004E0000046FF00750895029102C0050F0977A12B
:1004F00002850A0922150125283501452875089528
:100500000191020978A1020979097A097B1501256F
:1005100003750895019100C0097C150026FF003580
:100520000046FF009102C00990A102850B09221527
:1005300001252835014528750895019102C00996C5
:10054000A102850C099709980999099A099B099CA8
:1005500015012506750895019100C0097DA1028548
:100560000D097E150026FF003500461027750895F9
:10057000019102C0096BA102850E092215012528EF
:1005800035014528750895019102096D150026FF72
:1005900000350046FF007508950191020951660378
:1005A0001055FD150026FF7F350046FF7F7510951D
:1005B0000191025500660000C009ABA10285050942
:1005C00025A1020926092709300931093209330911
:1005D0003409400941094209430928250C15013510
:1005E00001450C75089501B100C00501093B1500D6
:1005F00026FF01350046FF01750A9501B102750617
:10060000B101C0050F0989A1028506092225281517
:10061000013501452875089501B102098BA1020930
:100620008C098D098E250315013501450375089543
:1006300001B100C009AC150027FFFF0000350047DD
:10064000FFFF000075109501B100C0097FA1028570
:10065000070980751095011500350027FFFF000080
:1006600047FFFF0000B102098326FF0046FF007527
:10067000089501B10209A909AA750195021500257D
:100680000135004501B10275069501B103C0C000F6
:10069000491411241FBECFEFDAE0DEBFCDBF11E059
:1006A000A0E0B1E0E8EFFEE302C005900D92A435B2
:1006B000B107D9F726E0A4E5B1E001C01D92A63E3E
:1006C000B207E1F713E0C9E4D3E004C02197FE01CB
:1006D0000E943F1EC834D107C9F70E9469160C94C6
:1006E0007A1F0C94000090E0FC01EB55FE4F249122
:1006F0008A579E4FFC018491882399F090E0880FDF
:10070000991FFC01E858FE4FA591B491FC01E659F0
:10071000FE4F859194918FB7F894EC91E22BEC9376
:100720008FBF0895CF92DF92EF92FF920F931F93A6
:10073000CF93DF93D901E8016A01F901421753070A
:1007400014F06901FA01882309F440C0CB016C154B
:100750007D050CF4C6019F018E179F070CF49C01C8
:10076000A417B50734F4CF01821B930B9C012C0D09
:100770003D1D0D2C000CEE08FF08032E000C440B51
:10078000550B2C193D094E095F09AEEFBFEF0E94D2
:10079000F81A9F01FF0F440B550B2C193D094E0908
:1007A0005F090E94D91ADA01C9018F5F9F47A10929
:1007B000B1098883998382E090E0DF91CF911F9106
:1007C0000F91FF90EF90DF90CF90089590E080E040
:1007D000F4CF2F923F924F925F926F927F928F92BF
:1007E0009F92AF92BF92CF92DF92EF92FF920F93C0
:1007F0001F93CF93DF93CDB7DEB72A970FB6F89448
:10080000DEBF0FBECDBF8C016A017B01ECE02E9FE5
:10081000800D911D11249A878987FC01658D768D45
:1008200090E080E00E94531C4B015C01E985FA8551
:1008300063897489072E000C880B990B0E94551C44
:1008400069837A838B839C83E985FA852788308C3A
:10085000238D348D3E832D83818D928D98878F8358
:100860000588F689E02DFA87E987A5019401698159
:100870007A818B819C810E94341B2B013C01A70152
:1008800096010E94441D18160CF069C020E030E467
:100890004CE156E4C301B2010E94AB1B9B01AC01C9
:1008A000C701B6010E94341B6B017C01B101330CFE
:1008B000880B990B0E94551C9B01AC01C701B60126
:1008C0000E94491D4B015C012D813E81B90190E0E0
:1008D00080E00E94531C6B017C01F7FAF094F7F85A
:1008E000F094A7019601C501B4010E94A11B87FFE6
:1008F00002C046015701F8016481B7FAB094B7F815
:10090000B09470E090E080E00E94551C9B01AC0127
:10091000C501B4010E94491DF801218120E030E0A9
:100920004FE753E40E94AB1B0E941D1C2A960FB692
:10093000F894DEBF0FBECDBFDF91CF911F910F9115
:10094000FF90EF90DF90CF90BF90AF909F908F90EF
:100950007F906F905F904F903F902F9008952981E6
:100960003A814B815C81C501B4010E94351B2B018A
:100970003C01AC019B01C701B6010E94441D181641
:10098000B4F5EF81F885BF0190E080E00E94531C30
:100990004B015C0120E030E44CE156E4C301B201BC
:1009A0000E94AB1B9B01AC01C701B6010E94341B26
:1009B0006B017C0129853A85B901330F880B990BAE
:1009C0000E94551C9B01AC01C701B6010E94491D44
:1009D0007B018D8399839B01AC01C501B4010E9409
:1009E000A11B87FD88CF4701AD80B98084CF60E02F
:1009F00070E0CB019BCF2F923F924F925F926F920C
:100A00007F928F929F92AF92BF92CF92DF92EF929E
:100A1000FF921F93CF93DF93CDB7DEB760970FB6EA
:100A2000F894DEBF0FBECDBF9E838D834D875E875A
:100A30006F87788BDC0114962C91FC01A585B68517
:100A400030E00E94451E2FEF30E040E050E00E9471
:100A5000D91A69017A01AD81BE8114968C911497DF
:100A600015960D90BC91A02DED81FE8114812780FB
:100A7000308443845484712C612C81849284940149
:100A800050E040E029833A834B835C8385A896A895
:100A9000B12CA12C63A974A99B0150E040E02D83E7
:100AA0003E834F835887A701960184149504A604BA
:100AB000B70444F5282F30E00E94451E2FEF30E0A8
:100AC00040E050E00E94D91A29873A874B875C871B
:100AD000A701960169857A858B859C85261B370B36
:100AE000480B590BC501B4010E94071EA3019201D6
:100AF0000E94D91A49845A846B847C84240D351D44
:100B0000461D571D8D819E81AF81B88549805A80D1
:100B10006B807C8084199509A609B7098815990509
:100B2000AA05BB053CF5212F30E0D1010E94451EEE
:100B30002FEF30E040E050E00E94D91A29013A013D
:100B4000A701960124193509460957096D817E814F
:100B50008F819885681979098A099B090E94071E67
:100B600029813A814B815C810E94D91A240D351D5F
:100B7000461D571D6D857E858F8598890E94071EAD
:100B8000A70196010E94D91ACA01B90160960FB651
:100B9000F894DEBF0FBECDBFDF91CF911F91FF90C4
:100BA000EF90DF90CF90BF90AF909F908F907F900D
:100BB0006F905F904F903F902F90089540914B051C
:100BC00050914C052091490530914A054217530731
:100BD000B4F49091E8009570E1F39091E80092FDF3
:100BE00019C08093F10080914B0590914C050196BE
:100BF0008F739927892B19F48EEF8093E8008091E9
:100C00004B0590914C05019690934C0580934B05B4
:100C100081E0089580E00895EF92FF920F931F9373
:100C2000CF93DF93F82E192FE62E042F81E0860F45
:100C3000880F0E94DE0583E00E94DE05CF2DD12FB4
:100C4000EC0EFD2EF11CCE15DF05B9F007FF13C029
:100C5000FE0184910E94DE05182F80E00E94DE05CF
:100C6000812321968111EFCFDF91CF911F910F91B9
:100C7000FF90EF9008958881EDCF81E0F5CFDF926E
:100C8000EF92FF920F931F93CF93DF93D82E8A0199
:100C9000EB017B01E40EF51ECE15DF0559F0D7FE02
:100CA00012C0FE0184910E94DE0521968111F4CFCD
:100CB0000FEF1FEFC801DF91CF911F910F91FF90B0
:100CC000EF90DF9008958881EECF2FB7F89487706A
:100CD0008093E9009091E800892F807295FF04C00D
:100CE0009091F20080E4891B2FBF089590915205E6
:100CF000992319F13FB7F89487708093E9008091A8
:100D0000F20090E0481759070CF4CA01282FFB01A4
:100D100054E6215038F0289850934E054091F10048
:100D20004193F7CF009739F02091F200211103C0D1
:100D30002BE62093E8003FBF08958FEF9FEF0895C3
:100D40009FB7F89487708093E9008091F2009FBF6D
:100D50000895615030F02091F100FC01208301964C
:100D6000F8CF289884E680934E050895AF92BF92FD
:100D7000DF92EF92FF920F931F93CF93DF935C016B
:100D80008B01EB019BEFD92E2097C1F07E01C1347E
:100D9000D1051CF080E4E82EF12C8091E80082FF60
:100DA000FCCFC8018C1B9D0B6E2D8A0D9B1D0E94D4
:100DB000A906D092E800CE19DF09E6CFC801DF917D
:100DC000CF911F910F91FF90EF90DF90BF90AF9068
:100DD00008958091410581110DC082E080933D0509
:100DE00084E080933E051092400510923F0581E01B
:100DF000809341058DE395E008950F931F93CF9362
:100E0000DF931F92CDB7DEB782E0898342E450E0E2
:100E100065EF70E080E80E943F060E94E906DC0171
:100E200012960D911C910115110589F0D801ED91D3
:100E3000FC910280F381E02DBE016F5F7F4FC801FE
:100E4000099597FD04C0F80100851185ECCF8981D3
:100E50000F90DF91CF911F910F910895CF93DF9362
:100E60001F92CDB7DEB76983DC01ED91FC91028062
:100E7000F381E02D41E050E0BE016F5F7F4F0995A7
:100E80000F90DF91CF91089583E08093E9008091E6
:100E9000F200882319F08AE38093E800089583E044
:100EA0000E94650690E00895CF93DF931F92CDB71F
:100EB000DEB7FC018485958597FD08C02FEF3FEFD5
:100EC000358724870F90DF91CF91089541E050E05E
:100ED000BE016F5F7F4F82E00E947606019719F492
:100EE000898190E0EFCF8FEF9FEFECCF0F931F93AF
:100EF000CF93DF931F92CDB7DEB78C01FC018485C1
:100F0000958597FF0FC041E050E0BE016F5F7F4FB6
:100F100082E00E947606019771F4898190E0F801E1
:100F200095878487F801848595850F90DF91CF910F
:100F30001F910F9108958FEF9FEFF1CFFC018485F2
:100F4000958597FD06C082E00E94A00690E001967C
:100F5000089582E00E94A00690E00895282F30E0D6
:100F6000F901EA52FF4F9491F901EB55FE4F84913C
:100F70002A573E4FF9012491222309F430C09923C6
:100F8000E9F091509F30D0F4E92FF0E0E653F84FAC
:100F90000C943F1EF807FC07D907F007F407DE079B
:100FA000DE07DE07FF07050809080D081308DE073E
:100FB0001708909180009F7790938000E22FF0E0D7
:100FC000EE0FFF1FE659FE4FA591B4919FB7F8941D
:100FD000EC91611132C080958E238C939FBF089550
:100FE000909180009F7DE8CF90918000977FE4CF23
:100FF00094B59F7794BDE2CF94B59F7DFBCF909140
:1010000090009F7790939000D9CF909190009F7D12
:10101000F9CF90919000977FF5CF9091C0009F7786
:101020009093C000CBCF9091C0009F7DF9CF90915D
:10103000C200977F9093C200C1CF8E2BCECF1F935B
:10104000CF93DF93182FEB010E947303209739F49D
:1010500060E0812FDF91CF911F910C94AE07CF3FBD
:10106000D10511F461E0F5CFE12FF0E0EA52FF4F36
:10107000E491E150EF3008F07FC0F0E0EE5BF74F15
:101080000C943F1E510859085E0868087208BC0895
:10109000BC08BC087C08860890089A08A708BC0809
:1010A000AF0884B5806884BDC7BDDF91CF911F9123
:1010B000089584B5806284BDC8BDF7CF809180005B
:1010C000806880938000D0938900C0938800EDCF22
:1010D00080918000806280938000D0938B00C093C9
:1010E0008A00E3CF80918000886080938000D09355
:1010F0008D00C0938C00D9CF809190008068809340
:101100009000D0939900C0939800CFCF8091900029
:10111000806280939000D0939B00C0939A00C5CFCB
:1011200080919000886080939000D0939D00C09340
:101130009C00BBCF8091C00080688093C0008091EC
:10114000C0008F7B8093C000C093CF00AECF809152
:10115000C00080628093C000C093D000A6CF809171
:10116000C20088608093C2008091C2008B7F809310
:10117000C200C093D20099CFC038D1050CF072CF15
:1011800067CF8251E82FF0E0E653FF4FE491909152
:101190007B008E2F880F880F80729F7D892B809314
:1011A0007B00E770E064E0937C0080917A008064CB
:1011B00080937A0080917A0086FDFCCF8091780040
:1011C0009091790008953FB7F894809139059091F6
:1011D0003A05A0913B05B0913C0526B5A89B05C0FA
:1011E0002F3F19F00196A11DB11D3FBFBA2FA92FA6
:1011F000982F8827BC01CD01620F711D811D911DA3
:1012000042E0660F771F881F991F4A95D1F708950E
:10121000CF92DF92EF92FF920E94E3086B017C0174
:101220000E94E3086C197D098E099F09683E73408E
:1012300081059105A8F3FF90EF90DF90CF9008957E
:101240007F928F929F92AF92BF92CF92DF92EF9256
:10125000FF920F931F93CF93DF93C82E8B017A01D8
:1012600080915205811110C08FEF9FEFDF91CF91D8
:101270001F910F91FF90EF90DF90CF90BF90AF90B4
:101280009F908F907F9008958091500580FF05C0BA
:101290008091E00082608093E000CE2DDF2DD12C84
:1012A0008AEFB82E8C2D8770982E8C2D8072882E08
:1012B0008C2D8074782E9AE3A92E209719F4DD20C6
:1012C00009F44EC08C2D0E946506811106C0BA94A7
:1012D000BB2051F20E940809F0CF8C171D0611F0B7
:1012E0000CF08C2F9FB7F8949092E9002091E800C1
:1012F00025FD02C09FBFE1CF282F30E0C21BD30BDA
:10130000882029F08150A0F01092F100FBCFF80165
:10131000C7FC0AC0815050F041914093F100FACFD0
:1013200044914093F10031968150D0F7020F131F82
:10133000DD2021F0A092E800D12CDCCF8091E800E4
:1013400085FD07C0A092E800DD24D394209791F298
:10135000F3CF209779F6772069F2A092E800CACF00
:101360005D9884E680934F05C70180CFCF93DF93CC
:10137000EC0180911201882331F083E00E94200962
:101380001816190634F081E090E09B838A8380E090
:1013900090E0DF91CF910895BC0130E020E08FE331
:1013A000DB01AF53BC4F829FF001839FF00D1124EE
:1013B000E60FF71F91819D7F91834D915C9111976D
:1013C000415C5F4F11965C934E932F5F3F4F2F30E0
:1013D000310549F70895FB0128E4208329E421839E
:1013E00024E42283DC01A852BC4F9C919F709F5B38
:1013F00093838D919C9124E0969587952A95E1F7AA
:101400008F708F5B848385E00895EF92FF920F9336
:101410001F93CF93DF93DB012C91213809F046C055
:1014200013962C911397223209F040C0FC0142819F
:1014300014962D913C9142171306C1F58C01EA5286
:10144000FC4FE080F180D0E0C0E0E114F10441F114
:10145000F701468157816281738180E00E943F06D7
:101460008F3F980751F4CFEFDFEFCE01DF91CF919F
:101470001F910F91FF90EF900895C80FD91FF701AA
:10148000408551856481758180E80E943F068F3FC9
:10149000980749F3C80FD91FF701E080F180D5CF35
:1014A000F801E652FC4F81E08083DFCFD0E0C0E05E
:1014B000DCCFCF93DF93CDB7DEB7A0970FB6F8940C
:1014C000DEBF0FBECDBFFC01DB018C918F5F8C9323
:1014D0009E012D5F3F4F8CE0D9011D928A95E9F75F
:1014E00099E0998384E08A8382E08D8383E08E8310
:1014F0009A8791E29B8791E19C8791E09D879F87E6
:1015000022E2288B57E05B8B45E04C8B8E8B20E4EE
:1015100030E0388F2F8B998F5A8F4B8F8D8F3F8F65
:101520002E8F98A382818B83DF01A852BC4F9C91A0
:1015300011968C91998B8A8B8381982F90689D8BC3
:101540008F5F8C8F40E250E0BE016F5F7F4F80E085
:101550000E943F06A0960FB6F894DEBF0FBECDBF27
:10156000DF91CF910895CF93DF9380913005811162
:101570008BC082E08093580181E08093590128E27A
:1015800035E030935B0120935A0110925D01109277
:101590005C012AE331E0309355012093540110920D
:1015A0001105109212051092130510921405109255
:1015B0001605109215051092180510921705209126
:1015C0003301309134014091350120931905309356
:1015D0001A0540931B0580935E011092100510922E
:1015E0002B0510922A0510922D0510922C05809340
:1015F0002E0580932F0581EC8093280580EC809345
:1016000029050E94E906FC01818190915801482F2B
:10161000490F5527551F483051059CF5A281B381CC
:10162000109709F524E531E033832283208120934C
:1016300056018093570180915901820F8083209138
:101640005A01A22FB0915B018A2F821B8917C8F41F
:1016500081813D91C82FD0E0C050DF4F38838F5F2C
:101660008183F2CFD90118962D913C9119972115BC
:101670003105C1F724E531E019963C932E93189774
:10168000D5CF81E08093300584E591E0DF91CF9163
:1016900008958F929F92AF92BF92CF92DF92EF9276
:1016A000FF920F931F93CF93DF93CDB7DEB7ADB605
:1016B000BEB68091DB062DB73EB7281B31090FB6A9
:1016C000F8943EBF0FBE2DBF8DB79EB701966C013B
:1016D000E090AA06F12C8091A6069091A706D6016B
:1016E000FC019F01281B390B2E153F051CF421918D
:1016F0002D93F7CF8091AB06882359F18091A206F4
:101700009091A30628E097FD09C068E671E00E9469
:101710002B1E6DE270E00E942B1E262F8091A406E6
:101720009091A50668E097FD08C068E671E00E9408
:101730002B1E6DE270E00E942B1EF601EE0DFF1DC8
:1017400090E1699FB0011124262B2083F701319687
:101750007F0186010E0D1F1D2091B0063091B1064C
:101760004091AE065091AF0660918C0670918D0647
:101770008091AC0681700E949203E80EF91E8601EA
:101780000E0D1F1D2091B4063091B5064091B20692
:101790005091B30660918E0670918F068091AC06D1
:1017A000869581700E949203E80EF91E86010E0D47
:1017B0001F1D2091B8063091B9064091B606509190
:1017C000B70660919006709191068091AC0682FBFD
:1017D000882780F90E949203E80EF91E86010E0DFB
:1017E0001F1D2091BC063091BD064091BA06509154
:1017F000BB0660919206709193068091AC0683FBC4
:10180000882780F90E949203E80EF91E86010E0DCA
:101810001F1D2091C0063091C1064091BE06509117
:10182000BF0660919406709195068091AC068295F2
:1018300081700E949203E80EF91E86010E0D1F1D95
:101840002091C4063091C5064091C2065091C3064E
:1018500060919606709197068091AC0685FB88276B
:1018600080F90E949203E80EF91E86010E0D1F1DDD
:101870002091C8063091C9064091C6065091C7060E
:1018800060919A0670919B068091AD0681700E94CE
:101890009203E80EF91E86010E0D1F1D2091CC0645
:1018A0003091CD064091CA065091CB0660919806C2
:1018B000709199068091AD06869581700E94920381
:1018C000E80EF91E86010E0D1F1D2091D0063091E5
:1018D000D1064091CE065091CF0660919C06709142
:1018E0009D068091AD0682FB882780F90E949203B5
:1018F000E80EF91E86010E0D1F1D2091D4063091B1
:10190000D5064091D2065091D30660919E06709103
:101910009F068091AD0683FB882780F90E94920381
:101920008E0D9F1D8601080F191F2091D80630913A
:10193000D9064091D6065091D7066091A0067091C5
:10194000A1068091AD06829581700E9492030E944B
:10195000B30A4C014091DB068091DA0650E07A012F
:10196000FFEFEF1AFF0A2DB73EB72E193F090FB64A
:10197000F8943EBF0FBE2DBF0DB71EB70F5F1F4FB0
:10198000EDB7FEB78183B601C80101960E94711FB1
:10199000F4018381A701B80180640E9420090FB679
:1019A000F894BEBE0FBEADBEDF91CF911F910F91D7
:1019B000FF90EF90DF90CF90BF90AF909F908F906F
:1019C00008954F925F926F927F928F929F92AF9203
:1019D000BF92CF92DF92EF92FF920F931F93CF931C
:1019E000DF93CDB7DEB761970FB6F894DEBF0FBEB9
:1019F000CDBF4C01A982BA82CB82DC82ED82FE820D
:101A00000F83188729873A874B875C876D872596D0
:101A1000BFAC25972496CCACDDACEEACFFAC2497E4
:101A2000DC011F968C911F97843029F452968C917B
:101A300001E0813009F000E0F4018785843009F08D
:101A40003DC060898289823008F03DC010E070E0BE
:101A500090E080E00E94551C20E030E044EB53E42D
:101A60000E94491D20E030E04FE753E40E94AB1B89
:101A700025E33AEF4EE85CE30E94491DB11025C012
:101A80000E94B61D6E877F87888B998BD401119633
:101A9000EC911197E150EB3008F03BC3F0E0ED5AC8
:101AA000F24F0C943F1E6F0D8C0DDA0D1C0E800E44
:101AB000E90E3E0F8D0FB20FD00F6D10B11002C0A6
:101AC0006089C4CF61891B2DC2CF0E94A61B9B01D8
:101AD000AC0150582E873F87488B598BD7CFF401E4
:101AE00045855685052E000C660B770BC4010E94B8
:101AF000FB049B01AC01AA81B0E00E94F81A0E948D
:101B0000551C2E853F85488959890E94491D0E9490
:101B10001D1C6B017C017EC29D96CD90DC909E9732
:101B2000D5960D911C91D6979F966D917C91D097EB
:101B30009D968D919C919E97D396ED90FC90681BFD
:101B4000790B072E000C880B990B0E94551C2B015A
:101B50003C01B80190E080E00E94531C9B01AC0165
:101B6000C301B2010E94491D2B013C01B70190E065
:101B700080E00E94531C9B01AC01C301B2010E9492
:101B8000AB1B2B013C01B601DD0C880B990B0E94AD
:101B9000551C9B01AC01C301B2010E94351B0E9480
:101BA0001D1CAB01BC01C4010E94FB049B01AC01E4
:101BB000AB81A2CFF40102811381000F111FC584F4
:101BC000D68423A534A505A8F6A9E02DD401D19685
:101BD000ED90FC902E9DC0012F9D900D3E9D900D8F
:101BE00011246FEF70E00E94171E9B01BF0190E06F
:101BF00080E0620F731F811D911D970150E040E04E
:101C00000E94031BF694E7942701712C612C461661
:101C100057066806790668F40C191D09A801110F0A
:101C2000660B770BC4010E94FB049B01AC01AC81E5
:101C300063CF0C0D1D1DF2CFF401A280B380AA0C5E
:101C4000BB1CC584D684E3A4F4A465A976A901A924
:101C500012A90115110509F44FC090E080E00E941F
:101C6000531C2B013C01B80190E080E00E94531C02
:101C70009B01AC01C301B2010E94AB1B9B01AC01F3
:101C80000E94351B2BED3FE049E450E40E94491DC2
:101C90002B013C01B70190E080E00E94531C20E042
:101CA00030EA4CE057E40E94AB1B9B01AC01C3013E
:101CB000B2010E94351B0E94B61D2B013C01B601EA
:101CC000DD0C880B990B0E94551CA30192010E9408
:101CD000491D0E941D1C8501BB0C220B330BAB015F
:101CE000BC01400F511F621F731FC4010E94FB04FF
:101CF0009B01AC01AD8100CF60E070E0CB01DBCF98
:101D00001296CD90DC901397CC0CDD1C1D96ED90B7
:101D1000FC901E97D596ED91FC91D6979B964D9190
:101D20005C919C97D1962D913C91D297D1960D9133
:101D30001C91429FC001439F900D529F900D112412
:101D40006FEF70E00E94171ECB0170E060E02F0182
:101D50003B01480E591E611C711CC301B20150E0C9
:101D600040E00E94031B2B013C01CE18DF08C70195
:101D7000880F991F880F991FB8010E94171E90E0C5
:101D800080E098013695279550E040E02415350510
:101D900046055705DCF430E020E0A901980124193C
:101DA0003509460957090E94071E8601DD0C220BE2
:101DB000330BAB01BC01400F511F621F731FC401E5
:101DC0000E94FB049B01AC01AE8196CEA30192015F
:101DD000EACF1296CD90DC901397CC0CDD1C1D96AB
:101DE0000D911C911E97D596ED91FC91D6979B96DF
:101DF0004D915C919C97D1962D913C91D297D19623
:101E0000ED90FC902901712C612C429FC001439FF1
:101E1000900D529F900D11246FEF70E00E94171EDD
:101E20009B01BF0190E080E0620F731F811D911D37
:101E3000A30192010E94031B461A570A680A790AF5
:101E4000C01AD10AC801880F991FB7010E94171E36
:101E5000DB01A30192010E94F81A8601DD0C220B1E
:101E6000330BAB01BC01400F511F621F731FC40134
:101E70000E94FB049B01AC01AF813ECEF401C28005
:101E8000D380CC0CDD1C0585168505A8F6A9E02DB0
:101E90009B964D915C919C97D1962D913C91D297B8
:101EA000D196ED90FC90429FC001439F900D529FB0
:101EB000900D11246FEF70E00E94171ECB0170E0AF
:101EC00060E02F013B01480E591E611C711CC301CB
:101ED000B20150E040E00E94031B2B013C01C01AFC
:101EE000D10AC801880F991FB7010E94171EDB0194
:101EF000A30192010E94F81A8601DD0C220B330B1C
:101F0000AB01BC01400F511F621F731FC4010E942F
:101F1000FB049B01AC01A885EFCD68A579A58AA536
:101F20009BA50E94551C6B017C016CA17DA18EA11B
:101F30009FA10E94551C9B01AC01C701B6010E94E4
:101F4000AB1BAB01BC01212FC4010E94E9039B0123
:101F5000AC01A985B0E00E94F81A6B017C01011167
:101F6000CECD58C068A979A98AA99BA90E94551C01
:101F70006B017C016CA57DA58EA59FA50E94551CBB
:101F80009B01AC01C701B6010E94AB1BAB01BC01B8
:101F9000212FC4010E94E9039B01AC01AA85DACF7D
:101FA00068AD79AD8AAD9BAD97FF93C0BB844CA85B
:101FB0005DA86EA87FA8F7FE5EC00E94551C6B014D
:101FC0007C01C301B2010E94551C9B01AC01C701F9
:101FD000B6010E94AB1B6B017C0120E030E0A9013F
:101FE0000E94441D181624F0F7FAF094F7F8F094C4
:101FF000212FB701A601C4010E94E9039B01AC0196
:10200000AB2DB0E00E94F81A6B017C01C701B6014C
:10201000011175CD2FB7F89480919B0590919C0587
:10202000A0919D05B0919E052FBFF40107A910ADA9
:1020300021AD32AD43AD54AD65AD76AD801B910B96
:1020400096AB85ABC701B60161960FB6F894DEBFBB
:102050000FBECDBFDF91CF911F910F91FF90EF90F9
:10206000DF90CF90BF90AF909F908F907F906F90B8
:102070005F904F900895C114D104E104F10431F24E
:102080000E94551C6B017C01C301B2010E94551CCA
:102090009B01AC01C701B6010E94AB1B6B017C0127
:1020A00020E030E0A9010E94441D181624F0F7FA40
:1020B000F094F7F8F094212FB701A601C4010E9413
:1020C000E90322273327A901261B370B480B590B9D
:1020D00097CFC12CD12C760199CFC701B6010E94B0
:1020E000551C6B017C016CAD7DAD8EAD9FAD0E942A
:1020F000551C9B01AC01C701B6010E94AB1BAB0193
:10210000BC01212FC4010E94E9039B01AC01AC85F5
:1021100021CFC12CD12C76017DCF0F931F93CF936C
:10212000DF93CDB7DEB72A970FB6F894DEBF0FBEA8
:10213000CDBFDC0112964C911297FB0124813581B1
:102140004217130609F03FC08C0191818081813ACA
:10215000E1F59130A9F59381933099F4828186302D
:10216000E1F48FEC97E00197F1F700C0000008530D
:102170001C4F45E050E0B80180E40E943F06D801C2
:102180001C9281E02A960FB6F894DEBF0FBECDBF39
:10219000DF91CF911F910F910895873091F7898337
:1021A0002FEF3FEF3B832A838EE08C839D8345E0B6
:1021B00050E0BE016F5F7F4F80E40E943F06E1CF99
:1021C00081E09330F9F280E0DDCF8132E1F79B309E
:1021D00031F48281FD01E652FC4F8083D2CF9A30E8
:1021E00029F48281FD01E552FC4FF7CF993059F770
:1021F0008381833031F686819781892B39F470E0B1
:1022000060E0CE0101960E94B606BBCF8281853088
:1022100009F0B7CF64E070E0CE0101960E94B606E7
:1022200086E0F801E853FC4F8083F80182858E3008
:1022300069F1828591E0980F92872FE3D8011A9671
:102240009C91F801299FE00DF11D1124938599239C
:1022500041F0F80192859E3020F492859F5F92872D
:10226000EDCF91E0F8012FE3829FE00DF11D1124E5
:102270009387F801E753FC4F80838081D801A653F0
:10228000BC4F811105C082E08C937BCF80E0F1CF01
:1022900021E02C9380813FE3839FC0011124F8014A
:1022A000E80FF91F3B96DF011D923A95E9F7800F81
:1022B000911FFC012387F801E553FC4F8081918138
:1022C000CF97918380835DCF1F920F920FB60F92AD
:1022D00011248F939F938091E1009091E100937F6F
:1022E0009093E10083FF0FC01092E90091E090937A
:1022F000EB001092EC0092E39093ED0010925205E7
:1023000098E09093F00082FF22C093E09093E90060
:102310009091F200992319F09AE39093E80090913C
:102320004F05992341F090914F05915090934F059F
:10233000911101C05D9A90914E05992341F09091C1
:102340004E05915090934E05911101C0289A84FF3B
:1023500018C08091E2008E7E81608093E2008091BF
:10236000E1008F7E8093E100809150058E7E806138
:10237000809350059F918F910F900FBE0F901F90EB
:10238000189580FFF7CF8091E2008E7E8061809368
:10239000E2008091E1008E7E8093E1008091500503
:1023A0008E7E8160E5CF1F920F920FB60F9211249F
:1023B000CF92DF92EF92FF920F931F932F933F9351
:1023C0004F935F936F937F938F939F93AF93BF933D
:1023D000EF93FF93CF93DF93CDB7DEB76C97DEBF5C
:1023E000CDBF1092E9008091E80083FF25C068E02E
:1023F000CE0145960E94A90682EF8093E8008D8960
:1024000087FF39C09091E80090FFFCCF982F90761D
:1024100009F034C19E894F89588D2F89F88C91110C
:1024200031C0803861F5809151058093F1001092A0
:10243000F1008EEF8093E8006C960FB6F894DEBF43
:102440000FBECDBFDF91CF91FF91EF91BF91AF91C3
:102450009F918F917F916F915F914F913F912F91BC
:102460001F910F91FF90EF90DF90CF900F900FBED4
:102470000F901F9018959EEF9093E800C7CF109291
:10248000F100D5CF913059F48111D3CF41305105AE
:1024900081F6809151058D7F80935105CACF93308D
:1024A00049F48111C6CF4130510519F6809151058B
:1024B0008260F2CF953041F48091E80080FFFCCF3C
:1024C00020682093E300B5CF963009F0A9C00B8DAA
:1024D0001C8D22E01092E90010924C0510924B05E1
:1024E000F2122EC010924A05109249050E94FD0674
:1024F0001F8299E09983FA8291E09E8390EA9887FF
:102500009AEF998720914B0530914C05275F3F4FFB
:102510003C832B838D831092E90010924C0510921E
:102520004B0510934A050093490549E050E0BE0170
:102530006F5F7F4F80E00E943F060E94FD0679CFCB
:1025400010934A05009349050E94E906DC011296A2
:102550000D911C910115110509F44BC1D801ED91A4
:10256000FC910480F581E02DBE016B5E7F4FC801B8
:102570000995009709F038C1F80100851185EACF67
:10258000F3E0FF120EC08F89882309F440C0823027
:1025900061F440E860E189E591E00E940C06811158
:1025A00048CF81E28093EB0047CF813029F440E8A7
:1025B0006BE08DE491E0F1CF833099F70E94E9065A
:1025C000DC011296ED90FC908E010F5F1F4F6801A9
:1025D000E114F10479F0D701ED91FC910680F781C7
:1025E000E02DB801C7010995080F111DF701E0841E
:1025F000F184EECFD8011C92F60101900020E9F79A
:102600003197BF016C197D0940E0C601C6CF67E371
:1026100071E0FB01449150E080E80E943F0609CF41
:10262000973009F4BECF983021F481E08093F10017
:1026300000CF993009F0FDCE837009F0B2CFE1E010
:10264000F1E081E031E096E32191222371F0809363
:10265000E9003093EB00DF0111972C912093EC00FF
:102660009093ED008F5F873079F78EE78093EA00D3
:102670001092EA008F8980935205DBCE8B8D9C8D62
:102680001092E90010924C0510924B0590934A0568
:1026900080934905898D81118CC08E899D89913ADD
:1026A00049F4813209F07DCF47E050E06BE071E002
:1026B00080E0B3CF913209F074CF833269F48F890F
:1026C000988DB0E0A0E08093070190930801A0935B
:1026D0000901B0930A01ADCE803239F467E070E0B1
:1026E0008BE091E00E94B606A4CE823209F0A1CE22
:1026F0008F8980931201EEEFFFE7859194918B3FD4
:102700009C4D51F1E0E0F8E080910B0190910C01BB
:10271000A0910D01B0910E01803B9440A105B1053F
:10272000F1F48091120180FD1AC0EE3F8AE0F807B3
:1027300089F587E797E79183808380916000809394
:102740004D0588E19BE00FB6F894A8958093600052
:102750000FBE909360006DCEEEEFFAE0D5CF808192
:1027600091818737974709F064CEA89580916000E2
:1027700088618093600080914D0580936000EE3FFA
:102780002AE0F20789F08091FE0A9091FF0A918376
:1027900080834FCE808191818737980751F2909343
:1027A000FF0A8093FE0AC5CF1092FF0A1092FE0A1C
:1027B00040CE0E94E906DC0112960D911C91011594
:1027C000110509F4EECED801ED91FC910190F08154
:1027D000E02DBE016B5E7F4FC8010995811129CEA6
:1027E000F80100851185EBCF181619060CF421CEDF
:1027F000D8CEF1E0FF12C4CE6BE371E00ACF1F9296
:102800000F920FB60F9211242F933F938F939F93A4
:10281000AF93BF9380919B0590919C05A0919D05DE
:10282000B0919E053091380523E0230F2D3758F5E0
:102830000196A11DB11D2093380580939B059093AF
:102840009C05A0939D05B0939E05809139059091BC
:102850003A05A0913B05B0913C050196A11DB11D23
:102860008093390590933A05A0933B05B0933C05BE
:10287000BF91AF919F918F913F912F910F900FBE7C
:102880000F901F90189526E8230F0296A11DB11DE9
:10289000D2CFEF92FF920F931F93CF93DF931092BB
:1028A000A2051092A10588EE93E0A0E0B0E080932D
:1028B000A3059093A405A093A505B093A60586E46F
:1028C00091E09093A00580939F058FEF9FEF9093E9
:1028D000AC058093AB0586E10E94C1088C01909302
:1028E000E1068093E0061092A7061092A6061092C9
:1028F000AA061092AF061092AE068FEF93E0909367
:10290000B1068093B0061092B3061092B20690936F
:10291000B5068093B4061092B7061092B60690934F
:10292000B9068093B8061092BB061092BA0690932F
:10293000BD068093BC061092BF061092BE0690930F
:10294000C1068093C0061092C3061092C2069093EF
:10295000C5068093C4061092C7061092C6069093CF
:10296000C9068093C8061092CB061092CA069093AF
:10297000CD068093CC061092CF061092CE0690938F
:10298000D1068093D0061092D3061092D20690936F
:10299000D5068093D4061092D7061092D60690934F
:1029A000D9068093D80681E08093DA062EE0209342
:1029B000A9061092AB0699E39093AC061092AD066F
:1029C00075E07093EF058093F00599E09093F10521
:1029D00038E03093F20541EA4093F3058093F40523
:1029E0009093F5058093F60535E83093F7058093CD
:1029F000F8054093F9051092FA057093FB05909342
:102A0000FC0539E13093FD058093FE0539E23093F2
:102A1000FF052093000635E130930106109202066F
:102A200035E2309303068093040665E7609305065C
:102A30008093060655E9509307062093080625E57E
:102A40002093090610920A0625E620930B061092A1
:102A50000C0631E830930D0622E020930E066093B9
:102A60000F068093100650931106209312063093A0
:102A70001306E3E0E09314067093150680931606A0
:102A8000909317068093180676E170931906809349
:102A90001A0680E880931B0686E280931C068FEF5F
:102AA00080931D068FE780931E0660931F0680E1CA
:102AB000809320065093210684E080932206409361
:102AC0002306109224069093250680E38093260621
:102AD0009093270683E3809328069093290684E346
:102AE00080932A0690932B0685E380932C063093DF
:102AF0002D0620932E0680EC80932F0680933006BF
:102B000082E490E00E944C1E7C0182E4EFEEF5E04E
:102B1000D70101900D928A95E1F78BE090E00E9439
:102B20004C1EEC0119821882FB82EA8284EC91E04F
:102B30009D838C8382E490E09F838E838BEC94E072
:102B4000998788871A860E94B30ADC01AA52BC4F73
:102B5000ED91FC911197309709F07AC0CD93DC93F9
:102B6000FC01E852FC4F808191812E813F81820FD0
:102B7000931F9183808328853985820F931F9183CA
:102B800080839091A906892F869586958695977062
:102B900009F066C08093AA06C091AA068C2F90E027
:102BA0000E944C1E9093A7068093A60681E0909108
:102BB000AB06911101C080E0C85F8C0F8093DB06EB
:102BC00010928D0610928C0610928F0610928E062F
:102BD000109291061092900610929306109292060F
:102BE00010929506109294061092970610929606EF
:102BF000109299061092980610929B0610929A06CF
:102C000010929D0610929C0610929F0610929E06AE
:102C10001092A1061092A0068FEF9FEF9093A3064B
:102C20008093A2069093A5068093A40690E080E08E
:102C30002091AA0628171906A9F0A4F0E091A6068B
:102C4000F091A706E80FF91F10820196F1CFF90164
:102C50002081318121153105D1F7D183C08380CF07
:102C60008F5F98CF26E530E0D8010E94451E2FEFF8
:102C700033E040E050E00E94D91A225F3F4F4F4FAF
:102C80005F4F30938B0620938A068AE080938906F3
:102C900089E08093880688E08093860610928706F4
:102CA0008AE00E947303809188060E9473038091DA
:102CB00086060E947303809187060E9473038FEF3C
:102CC00080938506DF91CF911F910F91FF90EF9038
:102CD0000895CF93DF93CDB7DEB7C454D1090FB6B3
:102CE000F894DEBF0FBECDBF789484B5826084BDFA
:102CF00084B5816084BD85B5826085BD85B5816000
:102D000085BD80916E00816080936E00109281007D
:102D10008091810082608093810080918100816038
:102D200080938100809180008160809380008091F9
:102D300091008260809391008091910081608093E6
:102D40009100809190008160809390008091C100FB
:102D500084608093C1008091C10082608093C10033
:102D60008091C10081608093C1008091C300816027
:102D70008093C3008091C00082608093C0008091E6
:102D8000C20081608093C20080917A008460809349
:102D90007A0080917A00826080937A0080917A0034
:102DA000816080937A0080917A00806880937A00B5
:102DB0001092520510925105109250058091D70043
:102DC00081608093D70080EA8093D80089B58061C4
:102DD00089BD89B5826089BD09B400FEFDCF0E941E
:102DE00008098091D8008F7C80618093D800809101
:102DF000E000807F8093E0008091E1008E7E8093F0
:102E0000E1008DE08093E200559A209A8091810044
:102E1000887F809381008091810081608093810010
:102E20008DE00E9473032AE030E03093C3062093C4
:102E3000C20688EE93E09093C5068093C406309353
:102E4000BB062093BA069093BD068093BC061092F1
:102E5000AF061092AE064FEF53E05093B106409389
:102E6000B0063093BF062093BE069093C1068093B0
:102E7000C0068FEF9FEF9093AC058093AB058091D8
:102E80008A06809313018EE080931B0181E4809376
:102E900014018CE280931E0182E380931D0188E27D
:102EA00080931C0183E191E09093DD068093DC0622
:102EB00081E08093A8060E94490B9FE3992E8BE83E
:102EC000282E3324339461E0809186060E94AE0759
:102ED00080918706882319F061E00E94AE0785E1A2
:102EE0000E94C10890939506809394068091A8064D
:102EF00081110E94490B84E10E94C10890939306BE
:102F0000809392068091A80681110E94490B83E16B
:102F10000E94C10890939706809396068091A80618
:102F200081110E94490B82E10E94C10890938D0695
:102F300080938C068091A80681110E94490B2BE595
:102F400035E03093DF062093DE060E94B30A7C0151
:102F5000DC0113968C918F5F0E94A006882309F4F0
:102F600037C0F701838140E450E0BE016F5F7F4FBF
:102F70008F5F0E9476069701265F3F4F9A81E98115
:102F8000E150ED3028F5F0E0E853F84E0C943F1E88
:102F9000D5179D19B319DE19F419FE19E817E817AA
:102FA000E8170C1A731A981AC01A2C813D81F70180
:102FB000999EE00DF11D112437AF26AF8D85838FCB
:102FC0008E85848F8B8184878A8587878C85828F85
:102FD0001092530510925405109255051092560503
:102FE00010925705109258051092590510925A05E3
:102FF000712C612C882483940E94B30A2C01969C26
:10300000F001979CF00D1124E80FF91F83858230A1
:1030100009F0DDC0DF01A05CBF4F2D913C9186AD72
:1030200097AD8217930730F486AD97AD8F3F9F47DA
:1030300009F0CDC00E94B30A84549C4FFC018081EA
:103040008111C5C0969CC001979C900D11240B96D0
:10305000480E591E8091DC069091DD061F92E0918A
:10306000DE06F091DF062DB73EB7205231090FB6CC
:10307000F8943EBF0FBE2DBFADB7BEB7119620E28C
:1030800001900D922A95E1F7DC01AC901196BC906D
:1030900011971296CC9012971396DC901397149672
:1030A000EC9014971596FC90159716960C91169720
:1030B00017961C91179718962C91189719963C9172
:1030C00019971A964C911A971B965C911B971C9610
:1030D0006C91C2010E94E10C0091530510915405BE
:1030E0002091550530915605DC01CB01800F911FD1
:1030F000A21FB31F8093530590935405A0935505C9
:10310000B09356050FB6F894DEBF0FBECDBF8091C9
:10311000DC069091DD068F92E091DE06F091DF06ED
:103120002DB73EB7205231090FB6F8943EBF0FBEFF
:103130002DBFADB7BEB7119620E2B09601900D92AB
:103140002A95E1F7DC011D96AC901D971E96BC9068
:103150001E971F96CC901F975096DC9050975196D3
:10316000EC9051975296FC90529753960C9153972E
:1031700054961C91549755962C91559756963C9180
:10318000569757964C91579758965C9158975996E1
:103190006C91C2010E94E10C0091570510915805F5
:1031A0002091590530915A05DC01CB01800F911F08
:1031B000A21FB31F8093570590935805A0935905FC
:1031C000B0935A050FB6F894DEBF0FBECDBFFFEF28
:1031D0006F1A7F0A2EE06216710409F00DCFE0909D
:1031E000DC06F090DD0660915705709158058091DE
:1031F000590590915A050E94551C2B013C01D7019D
:103200001D966C9170E090E080E00E94551C9B013F
:10321000AC01C301B2010E94491D20E030E44CE141
:1032200056E40E94AB1B0E941D1C25966CAF7DAF1F
:103230008EAF9FAF25976091530570915405809193
:103240005505909156050E94551C2B013C01F70134
:10325000608170E090E080E00E94551C9B01AC0111
:10326000C301B2010E94491D20E030E44CE156E464
:103270000E94AB1B0E941D1C9B01AC01205F384DBE
:103280004F4F5F4FAEEFB1E00E94F81A20E23EE4EC
:1032900040E050E00E94D91A29013A017A016901FF
:1032A000FFEFCF1AD108E108F108C0925305D09280
:1032B0005405E0925505F092560525962CAD3DAD8E
:1032C0004EAD5FAD2597205F384D4F4F5F4FAEEF4E
:1032D000B1E00E94F81A20E23EE440E050E00E9493
:1032E000D91A2F5F310941095109209357053093AD
:1032F00058054093590550935A0570E060E01C143E
:103300001D041E041F040CF040C1809188060E9419
:103310001F08C1010197F1F76C2D70E080918906BB
:103320000E941F088FEF8093850620E030E0232B5A
:1033300009F4C9CD0E940000C2CD2B813C81F70168
:10334000999EE00DF11D1124318B208B8D819E8182
:10335000938B828B8F819885978B868B8B859C85B1
:10336000958B848B35CE4B812C813D81999EC001FC
:103370001124FC015CE0549FE00DF11D1124EE0DC1
:10338000FF1D378F268F2E813F8131A320A32885F3
:10339000398533A322A32A853B8535A324A32C8515
:1033A0003D8537A326A32E853F8531A720A7F701AA
:1033B000E80FF91F858D8F5F858F0ACE2B813C81A9
:1033C000F701999EE00DF11D1124318F208F8D8121
:1033D0009E81968785878F81988597AB86AB8985F7
:1033E0009A8595AF84AFF4CD2B813C81F701999EEE
:1033F000E00DF11D1124318F208FEACD2B813C810E
:10340000F701999EE00DF11D112431AF20AF8D81A0
:103410009E8193AF82AFDCCD1B811130E9F58C81A9
:103420008823A1F0F701999EE00DF11D112446AD0E
:1034300057AD849F9001859F300D112437AF26AF83
:103440008F3F21F4AFEFBFE7B7AFA6AF9F3008F0D3
:10345000BFCDF701999EE00DF11D1124B2E0B387B5
:10346000DF01A05CBF4F11961C921E928FB7F8949B
:1034700000919B0510919C0520919D0530919E0522
:103480008FBFEE5BFF4F008311832283338314824F
:103490001582168217829CCD123071F4C9010E94E8
:1034A000CC098A818F3008F093CDF701989EE00D0A
:1034B000F11D11241387D4CF133009F089CD9F302B
:1034C00008F086CDF701999EE00DF11D112483854A
:1034D0008D7F8387F701E553FC4F80819181CF96E3
:1034E0009183808375CD9F3F81F481E0F7018287CE
:1034F0003B96DF0121EB33E01D9221503040E1F794
:10350000E054FC4F82E793E0EBCF9F3008F060CDB2
:10351000F701999EE00DF11D11241386D7011A962B
:103520008C911A97981708F053CD1A969C9350CD0A
:10353000913039F4F701EA53FC4F80818260808337
:1035400047CD923031F4F701EA53FC4F80818D7FF3
:10355000F6CF933021F4C9010E94CC0939CD9430C3
:1035600021F2953029F4F701E454FC4F81E0E7CFD4
:10357000963009F02DCDF701E454FC4F108228CD90
:10358000F701ED52FC4F908323CD809189060E9474
:103590001F08C1010197F1F78FEF90E0A0E0B0E0C4
:1035A00084199509A609B709682F70E080918806EB
:1035B000B7CE052E97FB1EF400940E94F01A57FD1B
:1035C00007D00E94031B07FC03D04EF40C94F01AA2
:1035D00050954095309521953F4F4F4F5F4F08953F
:1035E00090958095709561957F4F8F4F9F4F08956F
:1035F0000E94251BA59F900DB49F900DA49F800D48
:10360000911D11240895A1E21A2EAA1BBB1BFD01D6
:103610000DC0AA1FBB1FEE1FFF1FA217B307E407B1
:10362000F50720F0A21BB30BE40BF50B661F771F09
:10363000881F991F1A9469F76095709580959095E9
:103640009B01AC01BD01CF010895A29FB001B39FC2
:10365000C001A39F700D811D1124911DB29F700D9B
:10366000811D1124911D08955058BB27AA270E943F
:103670004C1B0C94F61C0E94BD1C38F00E94C41C0C
:1036800020F039F49F3F19F426F40C94BA1C0EF480
:10369000E095E7FB0C94B41CE92F0E941B1D58F326
:1036A000BA17620773078407950720F079F4A6F527
:1036B0000C943D1D0EF4E0950B2EBA2FA02D0B019E
:1036C000B90190010C01CA01A0011124FF27591B67
:1036D00099F0593F50F4503E68F11A16F040A22F6D
:1036E000232F342F4427585FF3CF469537952795DE
:1036F000A795F0405395C9F77EF41F16BA0B620BDD
:10370000730B840BBAF09150A1F0FF0FBB1F661F23
:10371000771F881FC2F70EC0BA0F621F731F841F66
:1037200048F4879577956795B795F7959E3F08F08C
:10373000B0CF9395880F08F09927EE0F979587954E
:1037400008950E94901C08F481E008950E94CD1C09
:10375000E3950C94071D0E94BF1B0C94F61C0E945D
:10376000C41C58F00E94BD1C40F029F45F3F29F0B2
:103770000C94B41C51110C943E1D0C94BA1C0E9464
:103780001B1D68F39923B1F3552391F3951B550B3A
:10379000BB27AA2762177307840738F09F5F5F4F24
:1037A000220F331F441FAA1FA9F335D00E2E3AF063
:1037B000E0E832D091505040E695001CCAF72BD07B
:1037C000FE2F29D0660F771F881FBB1F26173707CC
:1037D0004807AB07B0E809F0BB0B802DBF01FF27FE
:1037E00093585F4F3AF09E3F510578F00C94B41C0B
:1037F0000C943E1D5F3FE4F3983ED4F38695779595
:103800006795B795F7959F5FC9F7880F911D9695B6
:10381000879597F90895E1E0660F771F881FBB1F12
:10382000621773078407BA0720F0621B730B840BBF
:10383000BA0BEE1F88F7E09508950E94241C689447
:10384000B1110C943E1D08950E94231D88F09F57CE
:1038500098F0B92F9927B751B0F0E1F0660F771FB4
:10386000881F991F1AF0BA95C9F714C0B13091F0AA
:103870000E943D1DB1E008950C943D1D672F782FE7
:103880008827B85F39F0B93FCCF38695779567956F
:10389000B395D9F73EF490958095709561957F4FDB
:1038A0008F4F9F4F0895E89409C097FB3EF4909581
:1038B0008095709561957F4F8F4F9F4F9923A9F009
:1038C000F92F96E9BB279395F69587957795679598
:1038D000B795F111F8CFFAF4BB0F11F460FF1BC0DC
:1038E0006F5F7F4F8F4F9F4F16C0882311F096E96F
:1038F00011C0772321F09EE8872F762F05C066231D
:1039000071F096E8862F70E060E02AF09A95660FD5
:10391000771F881FDAF7880F9695879597F908958E
:10392000990F0008550FAA0BE0E8FEEF16161706D0
:10393000E807F907C0F012161306E407F50798F038
:10394000621B730B840B950B39F40A2661F0232B51
:10395000242B252B21F408950A2609F4A140A695CD
:103960008FEF811D811D089597F99F6780E870E0B2
:1039700060E008959FEF80EC089500240A941616E5
:10398000170618060906089500240A94121613064D
:103990001406050608950C94BA1C0E94231DD8F342
:1039A000E894E0E0BB279F57F0F02AED3FE049ECB8
:1039B00006C0EE0FBB0F661F771F881F28F0B23AB4
:1039C00062077307840728F0B25A620B730B840BEB
:1039D000E3959A9572F7803830F49A95BB0F661F7D
:1039E000771F881FD2F790480C94C01D092E0394AE
:1039F000000C11F4882352F0BB0F40F4BF2B11F4DC
:103A000060FF04C06F5F7F4F8F4F9F4F0895EF930C
:103A1000E0FF07C0A2EA2AED3FE049EC5FEB0E941D
:103A20004C1B0E94F61C0F90039401FC9058ECEA8A
:103A3000F0E00C94CC1D57FD9058440F551F59F0E1
:103A40005F3F71F04795880F97FB991F61F09F3F8B
:103A500079F087950895121613061406551FF2CFB4
:103A60004695F1DF08C0161617061806991FF1CF04
:103A700086957105610508940895E894BB2766272B
:103A80007727CB0197F908950E94901C08F48FEFD7
:103A900008950E945C1D0C94F61C0E94BD1C38F019
:103AA0000E94C41C20F0952311F00C94B41C0C94BB
:103AB000BA1C11240C943E1D0E941B1D70F3959F8F
:103AC000C1F3950F50E0551F629FF001729FBB2715
:103AD000F00DB11D639FAA27F00DB11DAA1F649FB1
:103AE0006627B00DA11D661F829F2227B00DA11D64
:103AF000621F739FB00DA11D621F839FA00D611DEA
:103B0000221F749F3327A00D611D231F849F600D0A
:103B1000211D822F762F6A2F11249F5750409AF033
:103B2000F1F088234AF0EE0FFF1FBB1F661F771FBF
:103B3000881F91505040A9F79E3F510580F00C948A
:103B4000B41C0C943E1D5F3FE4F3983ED4F386957D
:103B500077956795B795F795E7959F5FC1F7FE2B2A
:103B6000880F911D9695879597F908959F930E94C8
:103B7000CD1C0F9007FCEE5F0C94071D9F3F31F0AA
:103B8000915020F4879577956795B795880F911D8B
:103B90009695879597F908959F938F937F936F9349
:103BA000FF93EF939B01AC010E94491DEF91FF91A0
:103BB0000E94E01D2F913F914F915F910C94491D00
:103BC000DF93CF931F930F93FF92EF92DF927B01CE
:103BD0008C01689406C0DA2EEF010E945C1DFE0184
:103BE000E894A5912591359145915591A6F3EF0162
:103BF0000E944C1BFE019701A801DA9469F7DF903F
:103C0000EF90FF900F911F91CF91DF910895DB010D
:103C10008F939F930E94F81ABF91AF91A29F800D3E
:103C2000911DA39F900DB29F900D11240895AA1B82
:103C3000BB1B51E107C0AA1FBB1FA617B70710F097
:103C4000A61BB70B881F991F5A95A9F780959095C9
:103C5000BC01CD01089597FB072E16F4009407D000
:103C600077FD09D00E94171E07FC05D03EF4909501
:103C700081959F4F0895709561957F4F0895EE0F40
:103C8000FF1F0590F491E02D09940E94251BB7FFBA
:103C90000895821B930B08950F931F93CF93DF9387
:103CA0008230910510F482E090E0E091E406F0911A
:103CB000E50630E020E0B0E0A0E0309799F421156F
:103CC000310509F44AC0281B390B24303105D8F5D9
:103CD0008A819B816115710589F1FB019383828340
:103CE000FE0111C04081518102811381481759079B
:103CF000E0F04817590799F4109761F012960C9369
:103D0000129713961C933296CF01DF91CF911F919A
:103D10000F9108950093E4061093E506F4CF211562
:103D2000310551F04217530738F0A901DB019A0120
:103D3000BD01DF01F801C1CFEF01F9CF9093E50696
:103D40008093E406CDCFFE01E20FF31F81939193A0
:103D50002250310939832883D7CF2091E206309150
:103D6000E306232B41F420912F0130913001309351
:103D7000E3062093E20620912D0130912E012115BA
:103D8000310541F42DB73EB74091310150913201D8
:103D9000241B350BE091E206F091E306E217F307EE
:103DA000A0F42E1B3F0B2817390778F0AC014E5FAB
:103DB0005F4F2417350748F04E0F5F1F5093E306FF
:103DC0004093E206819391939FCFF0E0E0E09CCF97
:103DD000CF93DF930097E9F0FC01329713821282B0
:103DE000A091E406B091E506ED0130E020E01097E7
:103DF000A1F420813181820F931F2091E20630913E
:103E0000E3062817390709F061C0F093E306E09351
:103E1000E206DF91CF910895EA01CE17DF07E8F5BA
:103E20004A815B819E0141155105B1F7E901FB8390
:103E3000EA8349915991C40FD51FEC17FD0761F42E
:103E4000808191810296840F951FE901998388836F
:103E5000828193819B838A83F0E0E0E012968D91CA
:103E60009C9113970097B9F52D913C911197CD0135
:103E70000296820F931F2091E2063091E3062817E5
:103E8000390739F6309751F51092E5061092E4069D
:103E9000B093E306A093E206BCCFD383C2834081F4
:103EA0005181840F951FC817D90761F44E5F5F4F8A
:103EB00088819981480F591F518340838A819B8152
:103EC000938382832115310509F0B0CFF093E50685
:103ED000E093E4069ECFFD01DC01C0CF1382128285
:103EE000D7CFFB01DC0102C001900D924150504040
:083EF000D8F70895F894FFCF04
:103EF80000C18081000000FFFFFFFF00E10000001B
:103F08000000006464646464646464646464646495
:103F1800646464646464646464646464640000E69F
:103F2800068000021E00000000008D10590A050AD4
:103F3800EB09000000002E07B6094F0744079E074B
:043F4800540776079D
:00000001FF
